{
	"data": {
		"bytecode": {
			"linkReferences": {},
			"object": "6080604052600160045534801562000015575f80fd5b50604051620013203803806200132083398181016040528101906200003b9190620000e7565b8060035f6101000a81548173ffffffffffffffffffffffffffffffffffffffff021916908373ffffffffffffffffffffffffffffffffffffffff1602179055505062000117565b5f80fd5b5f73ffffffffffffffffffffffffffffffffffffffff82169050919050565b5f620000b18262000086565b9050919050565b620000c381620000a5565b8114620000ce575f80fd5b50565b5f81519050620000e181620000b8565b92915050565b5f60208284031215620000ff57620000fe62000082565b5b5f6200010e84828501620000d1565b91505092915050565b6111fb80620001255f395ff3fe60806040526004361061007a575f3560e01c8063aaccf1ec1161004d578063aaccf1ec14610139578063c7876ea414610163578063de74e57b1461018d578063efef39a1146101cc5761007a565b80631f181d571461007e578063265aa621146100a6578063367ccbd8146100e55780633cacd2651461010f575b5f80fd5b348015610089575f80fd5b506100a4600480360381019061009f9190610a3f565b6101e8565b005b3480156100b1575f80fd5b506100cc60048036038101906100c79190610a8f565b610646565b6040516100dc9493929190610b08565b60405180910390f35b3480156100f0575f80fd5b506100f9610691565b6040516101069190610b4b565b60405180910390f35b34801561011a575f80fd5b50610123610696565b6040516101309190610bbf565b60405180910390f35b348015610144575f80fd5b5061014d6106bb565b60405161015a9190610b4b565b60405180910390f35b34801561016e575f80fd5b506101776106c1565b6040516101849190610b4b565b60405180910390f35b348015610198575f80fd5b506101b360048036038101906101ae9190610a8f565b6106c7565b6040516101c39493929190610b08565b60405180910390f35b6101e660048036038101906101e19190610a8f565b610712565b005b8060035f9054906101000a900473ffffffffffffffffffffffffffffffffffffffff1673ffffffffffffffffffffffffffffffffffffffff1662fdd58e33866040518363ffffffff1660e01b8152600401610244929190610bd8565b602060405180830381865afa15801561025f573d5f803e3d5ffd5b505050506040513d601f19601f820116820180604052508101906102839190610c13565b10156102c4576040517f08c379a00000000000000000000000000000000000000000000000000000000081526004016102bb90610c98565b60405180910390fd5b60405180608001604052803373ffffffffffffffffffffffffffffffffffffffff1681526020018481526020018381526020018281525060055f60045481526020019081526020015f205f820151815f015f6101000a81548173ffffffffffffffffffffffffffffffffffffffff021916908373ffffffffffffffffffffffffffffffffffffffff160217905550602082015181600101556040820151816002015560608201518160030155905050823373ffffffffffffffffffffffffffffffffffffffff167fd0e2632082726e989c9a9cac6d495b05080e0d6836ee21e07618b32d5719a40460045485856040516103c093929190610cb6565b60405180910390a360045f8154809291906103da90610d18565b91905055505f60025f8581526020019081526020015f209050805f015f9054906101000a900473ffffffffffffffffffffffffffffffffffffffff1673ffffffffffffffffffffffffffffffffffffffff163373ffffffffffffffffffffffffffffffffffffffff1614610483576040517f08c379a000000000000000000000000000000000000000000000000000000000815260040161047a90610dcf565b60405180910390fd5b80600201544210156104ca576040517f08c379a00000000000000000000000000000000000000000000000000000000081526004016104c190610e37565b60405180910390fd5b8060030154421115610511576040517f08c379a000000000000000000000000000000000000000000000000000000000815260040161050890610e9f565b60405180910390fd5b806001015483101580156105415750600a600b82600101546105339190610ebd565b61053d9190610f2b565b8310155b610580576040517f08c379a000000000000000000000000000000000000000000000000000000000815260040161057790610fa5565b60405180910390fd5b33815f015f6101000a81548173ffffffffffffffffffffffffffffffffffffffff021916908373ffffffffffffffffffffffffffffffffffffffff1602179055508281600101819055505f4290505f6002836003015484600201546105e59190610fc3565b6105ef9190610f2b565b905084851180156105ff57508082105b156106285781816106109190610ff6565b8261061b9190610fc3565b836003018190555061063e565b5f54826106359190610fc3565b83600301819055505b505050505050565b6002602052805f5260405f205f91509050805f015f9054906101000a900473ffffffffffffffffffffffffffffffffffffffff16908060010154908060020154908060030154905084565b5f5481565b60035f9054906101000a900473ffffffffffffffffffffffffffffffffffffffff1681565b60045481565b60015481565b6005602052805f5260405f205f91509050805f015f9054906101000a900473ffffffffffffffffffffffffffffffffffffffff16908060010154908060020154908060030154905084565b5f60055f8381526020019081526020015f2090505f73ffffffffffffffffffffffffffffffffffffffff16815f015f9054906101000a900473ffffffffffffffffffffffffffffffffffffffff1673ffffffffffffffffffffffffffffffffffffffff16036107b6576040517f08c379a00000000000000000000000000000000000000000000000000000000081526004016107ad90611073565b60405180910390fd5b806002015434146107fc576040517f08c379a00000000000000000000000000000000000000000000000000000000081526004016107f3906110db565b60405180910390fd5b60035f9054906101000a900473ffffffffffffffffffffffffffffffffffffffff1673ffffffffffffffffffffffffffffffffffffffff1663f242432a825f015f9054906101000a900473ffffffffffffffffffffffffffffffffffffffff1633846001015485600301546040518563ffffffff1660e01b8152600401610886949392919061112c565b5f604051808303815f87803b15801561089d575f80fd5b505af11580156108af573d5f803e3d5ffd5b50505050805f015f9054906101000a900473ffffffffffffffffffffffffffffffffffffffff1673ffffffffffffffffffffffffffffffffffffffff166108fc826002015490811502906040515f60405180830381858888f1935050505015801561091c573d5f803e3d5ffd5b50805f015f9054906101000a900473ffffffffffffffffffffffffffffffffffffffff1673ffffffffffffffffffffffffffffffffffffffff163373ffffffffffffffffffffffffffffffffffffffff167f87d1ea9c6234c42bc3d2db949fc3408b782ccfd4cc6753f14fe41b6baeca11d7848460010154856002015486600301546040516109ae9493929190611182565b60405180910390a360055f8381526020019081526020015f205f8082015f6101000a81549073ffffffffffffffffffffffffffffffffffffffff0219169055600182015f9055600282015f9055600382015f905550505050565b5f80fd5b5f819050919050565b610a1e81610a0c565b8114610a28575f80fd5b50565b5f81359050610a3981610a15565b92915050565b5f805f60608486031215610a5657610a55610a08565b5b5f610a6386828701610a2b565b9350506020610a7486828701610a2b565b9250506040610a8586828701610a2b565b9150509250925092565b5f60208284031215610aa457610aa3610a08565b5b5f610ab184828501610a2b565b91505092915050565b5f73ffffffffffffffffffffffffffffffffffffffff82169050919050565b5f610ae382610aba565b9050919050565b610af381610ad9565b82525050565b610b0281610a0c565b82525050565b5f608082019050610b1b5f830187610aea565b610b286020830186610af9565b610b356040830185610af9565b610b426060830184610af9565b95945050505050565b5f602082019050610b5e5f830184610af9565b92915050565b5f819050919050565b5f610b87610b82610b7d84610aba565b610b64565b610aba565b9050919050565b5f610b9882610b6d565b9050919050565b5f610ba982610b8e565b9050919050565b610bb981610b9f565b82525050565b5f602082019050610bd25f830184610bb0565b92915050565b5f604082019050610beb5f830185610aea565b610bf86020830184610af9565b9392505050565b5f81519050610c0d81610a15565b92915050565b5f60208284031215610c2857610c27610a08565b5b5f610c3584828501610bff565b91505092915050565b5f82825260208201905092915050565b7f4e6f7420656e6f75676820746f6b656e7320746f206c697374000000000000005f82015250565b5f610c82601983610c3e565b9150610c8d82610c4e565b602082019050919050565b5f6020820190508181035f830152610caf81610c76565b9050919050565b5f606082019050610cc95f830186610af9565b610cd66020830185610af9565b610ce36040830184610af9565b949350505050565b7f4e487b71000000000000000000000000000000000000000000000000000000005f52601160045260245ffd5b5f610d2282610a0c565b91507fffffffffffffffffffffffffffffffffffffffffffffffffffffffffffffffff8203610d5457610d53610ceb565b5b600182019050919050565b7f596f7520617265206e6f7420746865206f776e6572206f662074686973204e465f8201527f5400000000000000000000000000000000000000000000000000000000000000602082015250565b5f610db9602183610c3e565b9150610dc482610d5f565b604082019050919050565b5f6020820190508181035f830152610de681610dad565b9050919050565b7fe69caae98194e588b0e8bd89e8b3a3e8a8ade5ae9ae69982e9969300000000005f82015250565b5f610e21601b83610c3e565b9150610e2c82610ded565b602082019050919050565b5f6020820190508181035f830152610e4e81610e15565b9050919050565b7fe4baa4e69893e69c9fe99990e5b7b2e7b590e69d9f00000000000000000000005f82015250565b5f610e89601583610c3e565b9150610e9482610e55565b602082019050919050565b5f6020820190508181035f830152610eb681610e7d565b9050919050565b5f610ec782610a0c565b9150610ed283610a0c565b9250828202610ee081610a0c565b91508282048414831517610ef757610ef6610ceb565b5b5092915050565b7f4e487b71000000000000000000000000000000000000000000000000000000005f52601260045260245ffd5b5f610f3582610a0c565b9150610f4083610a0c565b925082610f5057610f4f610efe565b5b828204905092915050565b7fe583b9e6a0bce784a1e6958800000000000000000000000000000000000000005f82015250565b5f610f8f600c83610c3e565b9150610f9a82610f5b565b602082019050919050565b5f6020820190508181035f830152610fbc81610f83565b9050919050565b5f610fcd82610a0c565b9150610fd883610a0c565b9250828201905080821115610ff057610fef610ceb565b5b92915050565b5f61100082610a0c565b915061100b83610a0c565b925082820390508181111561102357611022610ceb565b5b92915050565b7f496e76616c6964206c697374696e6749640000000000000000000000000000005f82015250565b5f61105d601183610c3e565b915061106882611029565b602082019050919050565b5f6020820190508181035f83015261108a81611051565b9050919050565b7f496e636f72726563742076616c75652073656e740000000000000000000000005f82015250565b5f6110c5601483610c3e565b91506110d082611091565b602082019050919050565b5f6020820190508181035f8301526110f2816110b9565b9050919050565b5f82825260208201905092915050565b50565b5f6111175f836110f9565b915061112282611109565b5f82019050919050565b5f60a08201905061113f5f830187610aea565b61114c6020830186610aea565b6111596040830185610af9565b6111666060830184610af9565b81810360808301526111778161110c565b905095945050505050565b5f6080820190506111955f830187610af9565b6111a26020830186610af9565b6111af6040830185610af9565b6111bc6060830184610af9565b9594505050505056fea26469706673582212201e210e477c62c6cb302f0fb56340c6456f3834b6a09b4da6e4b72d3ad91742b264736f6c63430008160033",
			"opcodes": "PUSH1 0x80 PUSH1 0x40 MSTORE PUSH1 0x1 PUSH1 0x4 SSTORE CALLVALUE DUP1 ISZERO PUSH3 0x15 JUMPI PUSH0 DUP1 REVERT JUMPDEST POP PUSH1 0x40 MLOAD PUSH3 0x1320 CODESIZE SUB DUP1 PUSH3 0x1320 DUP4 CODECOPY DUP2 DUP2 ADD PUSH1 0x40 MSTORE DUP2 ADD SWAP1 PUSH3 0x3B SWAP2 SWAP1 PUSH3 0xE7 JUMP JUMPDEST DUP1 PUSH1 0x3 PUSH0 PUSH2 0x100 EXP DUP2 SLOAD DUP2 PUSH20 0xFFFFFFFFFFFFFFFFFFFFFFFFFFFFFFFFFFFFFFFF MUL NOT AND SWAP1 DUP4 PUSH20 0xFFFFFFFFFFFFFFFFFFFFFFFFFFFFFFFFFFFFFFFF AND MUL OR SWAP1 SSTORE POP POP PUSH3 0x117 JUMP JUMPDEST PUSH0 DUP1 REVERT JUMPDEST PUSH0 PUSH20 0xFFFFFFFFFFFFFFFFFFFFFFFFFFFFFFFFFFFFFFFF DUP3 AND SWAP1 POP SWAP2 SWAP1 POP JUMP JUMPDEST PUSH0 PUSH3 0xB1 DUP3 PUSH3 0x86 JUMP JUMPDEST SWAP1 POP SWAP2 SWAP1 POP JUMP JUMPDEST PUSH3 0xC3 DUP2 PUSH3 0xA5 JUMP JUMPDEST DUP2 EQ PUSH3 0xCE JUMPI PUSH0 DUP1 REVERT JUMPDEST POP JUMP JUMPDEST PUSH0 DUP2 MLOAD SWAP1 POP PUSH3 0xE1 DUP2 PUSH3 0xB8 JUMP JUMPDEST SWAP3 SWAP2 POP POP JUMP JUMPDEST PUSH0 PUSH1 0x20 DUP3 DUP5 SUB SLT ISZERO PUSH3 0xFF JUMPI PUSH3 0xFE PUSH3 0x82 JUMP JUMPDEST JUMPDEST PUSH0 PUSH3 0x10E DUP5 DUP3 DUP6 ADD PUSH3 0xD1 JUMP JUMPDEST SWAP2 POP POP SWAP3 SWAP2 POP POP JUMP JUMPDEST PUSH2 0x11FB DUP1 PUSH3 0x125 PUSH0 CODECOPY PUSH0 RETURN INVALID PUSH1 0x80 PUSH1 0x40 MSTORE PUSH1 0x4 CALLDATASIZE LT PUSH2 0x7A JUMPI PUSH0 CALLDATALOAD PUSH1 0xE0 SHR DUP1 PUSH4 0xAACCF1EC GT PUSH2 0x4D JUMPI DUP1 PUSH4 0xAACCF1EC EQ PUSH2 0x139 JUMPI DUP1 PUSH4 0xC7876EA4 EQ PUSH2 0x163 JUMPI DUP1 PUSH4 0xDE74E57B EQ PUSH2 0x18D JUMPI DUP1 PUSH4 0xEFEF39A1 EQ PUSH2 0x1CC JUMPI PUSH2 0x7A JUMP JUMPDEST DUP1 PUSH4 0x1F181D57 EQ PUSH2 0x7E JUMPI DUP1 PUSH4 0x265AA621 EQ PUSH2 0xA6 JUMPI DUP1 PUSH4 0x367CCBD8 EQ PUSH2 0xE5 JUMPI DUP1 PUSH4 0x3CACD265 EQ PUSH2 0x10F JUMPI JUMPDEST PUSH0 DUP1 REVERT JUMPDEST CALLVALUE DUP1 ISZERO PUSH2 0x89 JUMPI PUSH0 DUP1 REVERT JUMPDEST POP PUSH2 0xA4 PUSH1 0x4 DUP1 CALLDATASIZE SUB DUP2 ADD SWAP1 PUSH2 0x9F SWAP2 SWAP1 PUSH2 0xA3F JUMP JUMPDEST PUSH2 0x1E8 JUMP JUMPDEST STOP JUMPDEST CALLVALUE DUP1 ISZERO PUSH2 0xB1 JUMPI PUSH0 DUP1 REVERT JUMPDEST POP PUSH2 0xCC PUSH1 0x4 DUP1 CALLDATASIZE SUB DUP2 ADD SWAP1 PUSH2 0xC7 SWAP2 SWAP1 PUSH2 0xA8F JUMP JUMPDEST PUSH2 0x646 JUMP JUMPDEST PUSH1 0x40 MLOAD PUSH2 0xDC SWAP5 SWAP4 SWAP3 SWAP2 SWAP1 PUSH2 0xB08 JUMP JUMPDEST PUSH1 0x40 MLOAD DUP1 SWAP2 SUB SWAP1 RETURN JUMPDEST CALLVALUE DUP1 ISZERO PUSH2 0xF0 JUMPI PUSH0 DUP1 REVERT JUMPDEST POP PUSH2 0xF9 PUSH2 0x691 JUMP JUMPDEST PUSH1 0x40 MLOAD PUSH2 0x106 SWAP2 SWAP1 PUSH2 0xB4B JUMP JUMPDEST PUSH1 0x40 MLOAD DUP1 SWAP2 SUB SWAP1 RETURN JUMPDEST CALLVALUE DUP1 ISZERO PUSH2 0x11A JUMPI PUSH0 DUP1 REVERT JUMPDEST POP PUSH2 0x123 PUSH2 0x696 JUMP JUMPDEST PUSH1 0x40 MLOAD PUSH2 0x130 SWAP2 SWAP1 PUSH2 0xBBF JUMP JUMPDEST PUSH1 0x40 MLOAD DUP1 SWAP2 SUB SWAP1 RETURN JUMPDEST CALLVALUE DUP1 ISZERO PUSH2 0x144 JUMPI PUSH0 DUP1 REVERT JUMPDEST POP PUSH2 0x14D PUSH2 0x6BB JUMP JUMPDEST PUSH1 0x40 MLOAD PUSH2 0x15A SWAP2 SWAP1 PUSH2 0xB4B JUMP JUMPDEST PUSH1 0x40 MLOAD DUP1 SWAP2 SUB SWAP1 RETURN JUMPDEST CALLVALUE DUP1 ISZERO PUSH2 0x16E JUMPI PUSH0 DUP1 REVERT JUMPDEST POP PUSH2 0x177 PUSH2 0x6C1 JUMP JUMPDEST PUSH1 0x40 MLOAD PUSH2 0x184 SWAP2 SWAP1 PUSH2 0xB4B JUMP JUMPDEST PUSH1 0x40 MLOAD DUP1 SWAP2 SUB SWAP1 RETURN JUMPDEST CALLVALUE DUP1 ISZERO PUSH2 0x198 JUMPI PUSH0 DUP1 REVERT JUMPDEST POP PUSH2 0x1B3 PUSH1 0x4 DUP1 CALLDATASIZE SUB DUP2 ADD SWAP1 PUSH2 0x1AE SWAP2 SWAP1 PUSH2 0xA8F JUMP JUMPDEST PUSH2 0x6C7 JUMP JUMPDEST PUSH1 0x40 MLOAD PUSH2 0x1C3 SWAP5 SWAP4 SWAP3 SWAP2 SWAP1 PUSH2 0xB08 JUMP JUMPDEST PUSH1 0x40 MLOAD DUP1 SWAP2 SUB SWAP1 RETURN JUMPDEST PUSH2 0x1E6 PUSH1 0x4 DUP1 CALLDATASIZE SUB DUP2 ADD SWAP1 PUSH2 0x1E1 SWAP2 SWAP1 PUSH2 0xA8F JUMP JUMPDEST PUSH2 0x712 JUMP JUMPDEST STOP JUMPDEST DUP1 PUSH1 0x3 PUSH0 SWAP1 SLOAD SWAP1 PUSH2 0x100 EXP SWAP1 DIV PUSH20 0xFFFFFFFFFFFFFFFFFFFFFFFFFFFFFFFFFFFFFFFF AND PUSH20 0xFFFFFFFFFFFFFFFFFFFFFFFFFFFFFFFFFFFFFFFF AND PUSH3 0xFDD58E CALLER DUP7 PUSH1 0x40 MLOAD DUP4 PUSH4 0xFFFFFFFF AND PUSH1 0xE0 SHL DUP2 MSTORE PUSH1 0x4 ADD PUSH2 0x244 SWAP3 SWAP2 SWAP1 PUSH2 0xBD8 JUMP JUMPDEST PUSH1 0x20 PUSH1 0x40 MLOAD DUP1 DUP4 SUB DUP2 DUP7 GAS STATICCALL ISZERO DUP1 ISZERO PUSH2 0x25F JUMPI RETURNDATASIZE PUSH0 DUP1 RETURNDATACOPY RETURNDATASIZE PUSH0 REVERT JUMPDEST POP POP POP POP PUSH1 0x40 MLOAD RETURNDATASIZE PUSH1 0x1F NOT PUSH1 0x1F DUP3 ADD AND DUP3 ADD DUP1 PUSH1 0x40 MSTORE POP DUP2 ADD SWAP1 PUSH2 0x283 SWAP2 SWAP1 PUSH2 0xC13 JUMP JUMPDEST LT ISZERO PUSH2 0x2C4 JUMPI PUSH1 0x40 MLOAD PUSH32 0x8C379A000000000000000000000000000000000000000000000000000000000 DUP2 MSTORE PUSH1 0x4 ADD PUSH2 0x2BB SWAP1 PUSH2 0xC98 JUMP JUMPDEST PUSH1 0x40 MLOAD DUP1 SWAP2 SUB SWAP1 REVERT JUMPDEST PUSH1 0x40 MLOAD DUP1 PUSH1 0x80 ADD PUSH1 0x40 MSTORE DUP1 CALLER PUSH20 0xFFFFFFFFFFFFFFFFFFFFFFFFFFFFFFFFFFFFFFFF AND DUP2 MSTORE PUSH1 0x20 ADD DUP5 DUP2 MSTORE PUSH1 0x20 ADD DUP4 DUP2 MSTORE PUSH1 0x20 ADD DUP3 DUP2 MSTORE POP PUSH1 0x5 PUSH0 PUSH1 0x4 SLOAD DUP2 MSTORE PUSH1 0x20 ADD SWAP1 DUP2 MSTORE PUSH1 0x20 ADD PUSH0 KECCAK256 PUSH0 DUP3 ADD MLOAD DUP2 PUSH0 ADD PUSH0 PUSH2 0x100 EXP DUP2 SLOAD DUP2 PUSH20 0xFFFFFFFFFFFFFFFFFFFFFFFFFFFFFFFFFFFFFFFF MUL NOT AND SWAP1 DUP4 PUSH20 0xFFFFFFFFFFFFFFFFFFFFFFFFFFFFFFFFFFFFFFFF AND MUL OR SWAP1 SSTORE POP PUSH1 0x20 DUP3 ADD MLOAD DUP2 PUSH1 0x1 ADD SSTORE PUSH1 0x40 DUP3 ADD MLOAD DUP2 PUSH1 0x2 ADD SSTORE PUSH1 0x60 DUP3 ADD MLOAD DUP2 PUSH1 0x3 ADD SSTORE SWAP1 POP POP DUP3 CALLER PUSH20 0xFFFFFFFFFFFFFFFFFFFFFFFFFFFFFFFFFFFFFFFF AND PUSH32 0xD0E2632082726E989C9A9CAC6D495B05080E0D6836EE21E07618B32D5719A404 PUSH1 0x4 SLOAD DUP6 DUP6 PUSH1 0x40 MLOAD PUSH2 0x3C0 SWAP4 SWAP3 SWAP2 SWAP1 PUSH2 0xCB6 JUMP JUMPDEST PUSH1 0x40 MLOAD DUP1 SWAP2 SUB SWAP1 LOG3 PUSH1 0x4 PUSH0 DUP2 SLOAD DUP1 SWAP3 SWAP2 SWAP1 PUSH2 0x3DA SWAP1 PUSH2 0xD18 JUMP JUMPDEST SWAP2 SWAP1 POP SSTORE POP PUSH0 PUSH1 0x2 PUSH0 DUP6 DUP2 MSTORE PUSH1 0x20 ADD SWAP1 DUP2 MSTORE PUSH1 0x20 ADD PUSH0 KECCAK256 SWAP1 POP DUP1 PUSH0 ADD PUSH0 SWAP1 SLOAD SWAP1 PUSH2 0x100 EXP SWAP1 DIV PUSH20 0xFFFFFFFFFFFFFFFFFFFFFFFFFFFFFFFFFFFFFFFF AND PUSH20 0xFFFFFFFFFFFFFFFFFFFFFFFFFFFFFFFFFFFFFFFF AND CALLER PUSH20 0xFFFFFFFFFFFFFFFFFFFFFFFFFFFFFFFFFFFFFFFF AND EQ PUSH2 0x483 JUMPI PUSH1 0x40 MLOAD PUSH32 0x8C379A000000000000000000000000000000000000000000000000000000000 DUP2 MSTORE PUSH1 0x4 ADD PUSH2 0x47A SWAP1 PUSH2 0xDCF JUMP JUMPDEST PUSH1 0x40 MLOAD DUP1 SWAP2 SUB SWAP1 REVERT JUMPDEST DUP1 PUSH1 0x2 ADD SLOAD TIMESTAMP LT ISZERO PUSH2 0x4CA JUMPI PUSH1 0x40 MLOAD PUSH32 0x8C379A000000000000000000000000000000000000000000000000000000000 DUP2 MSTORE PUSH1 0x4 ADD PUSH2 0x4C1 SWAP1 PUSH2 0xE37 JUMP JUMPDEST PUSH1 0x40 MLOAD DUP1 SWAP2 SUB SWAP1 REVERT JUMPDEST DUP1 PUSH1 0x3 ADD SLOAD TIMESTAMP GT ISZERO PUSH2 0x511 JUMPI PUSH1 0x40 MLOAD PUSH32 0x8C379A000000000000000000000000000000000000000000000000000000000 DUP2 MSTORE PUSH1 0x4 ADD PUSH2 0x508 SWAP1 PUSH2 0xE9F JUMP JUMPDEST PUSH1 0x40 MLOAD DUP1 SWAP2 SUB SWAP1 REVERT JUMPDEST DUP1 PUSH1 0x1 ADD SLOAD DUP4 LT ISZERO DUP1 ISZERO PUSH2 0x541 JUMPI POP PUSH1 0xA PUSH1 0xB DUP3 PUSH1 0x1 ADD SLOAD PUSH2 0x533 SWAP2 SWAP1 PUSH2 0xEBD JUMP JUMPDEST PUSH2 0x53D SWAP2 SWAP1 PUSH2 0xF2B JUMP JUMPDEST DUP4 LT ISZERO JUMPDEST PUSH2 0x580 JUMPI PUSH1 0x40 MLOAD PUSH32 0x8C379A000000000000000000000000000000000000000000000000000000000 DUP2 MSTORE PUSH1 0x4 ADD PUSH2 0x577 SWAP1 PUSH2 0xFA5 JUMP JUMPDEST PUSH1 0x40 MLOAD DUP1 SWAP2 SUB SWAP1 REVERT JUMPDEST CALLER DUP2 PUSH0 ADD PUSH0 PUSH2 0x100 EXP DUP2 SLOAD DUP2 PUSH20 0xFFFFFFFFFFFFFFFFFFFFFFFFFFFFFFFFFFFFFFFF MUL NOT AND SWAP1 DUP4 PUSH20 0xFFFFFFFFFFFFFFFFFFFFFFFFFFFFFFFFFFFFFFFF AND MUL OR SWAP1 SSTORE POP DUP3 DUP2 PUSH1 0x1 ADD DUP2 SWAP1 SSTORE POP PUSH0 TIMESTAMP SWAP1 POP PUSH0 PUSH1 0x2 DUP4 PUSH1 0x3 ADD SLOAD DUP5 PUSH1 0x2 ADD SLOAD PUSH2 0x5E5 SWAP2 SWAP1 PUSH2 0xFC3 JUMP JUMPDEST PUSH2 0x5EF SWAP2 SWAP1 PUSH2 0xF2B JUMP JUMPDEST SWAP1 POP DUP5 DUP6 GT DUP1 ISZERO PUSH2 0x5FF JUMPI POP DUP1 DUP3 LT JUMPDEST ISZERO PUSH2 0x628 JUMPI DUP2 DUP2 PUSH2 0x610 SWAP2 SWAP1 PUSH2 0xFF6 JUMP JUMPDEST DUP3 PUSH2 0x61B SWAP2 SWAP1 PUSH2 0xFC3 JUMP JUMPDEST DUP4 PUSH1 0x3 ADD DUP2 SWAP1 SSTORE POP PUSH2 0x63E JUMP JUMPDEST PUSH0 SLOAD DUP3 PUSH2 0x635 SWAP2 SWAP1 PUSH2 0xFC3 JUMP JUMPDEST DUP4 PUSH1 0x3 ADD DUP2 SWAP1 SSTORE POP JUMPDEST POP POP POP POP POP POP JUMP JUMPDEST PUSH1 0x2 PUSH1 0x20 MSTORE DUP1 PUSH0 MSTORE PUSH1 0x40 PUSH0 KECCAK256 PUSH0 SWAP2 POP SWAP1 POP DUP1 PUSH0 ADD PUSH0 SWAP1 SLOAD SWAP1 PUSH2 0x100 EXP SWAP1 DIV PUSH20 0xFFFFFFFFFFFFFFFFFFFFFFFFFFFFFFFFFFFFFFFF AND SWAP1 DUP1 PUSH1 0x1 ADD SLOAD SWAP1 DUP1 PUSH1 0x2 ADD SLOAD SWAP1 DUP1 PUSH1 0x3 ADD SLOAD SWAP1 POP DUP5 JUMP JUMPDEST PUSH0 SLOAD DUP2 JUMP JUMPDEST PUSH1 0x3 PUSH0 SWAP1 SLOAD SWAP1 PUSH2 0x100 EXP SWAP1 DIV PUSH20 0xFFFFFFFFFFFFFFFFFFFFFFFFFFFFFFFFFFFFFFFF AND DUP2 JUMP JUMPDEST PUSH1 0x4 SLOAD DUP2 JUMP JUMPDEST PUSH1 0x1 SLOAD DUP2 JUMP JUMPDEST PUSH1 0x5 PUSH1 0x20 MSTORE DUP1 PUSH0 MSTORE PUSH1 0x40 PUSH0 KECCAK256 PUSH0 SWAP2 POP SWAP1 POP DUP1 PUSH0 ADD PUSH0 SWAP1 SLOAD SWAP1 PUSH2 0x100 EXP SWAP1 DIV PUSH20 0xFFFFFFFFFFFFFFFFFFFFFFFFFFFFFFFFFFFFFFFF AND SWAP1 DUP1 PUSH1 0x1 ADD SLOAD SWAP1 DUP1 PUSH1 0x2 ADD SLOAD SWAP1 DUP1 PUSH1 0x3 ADD SLOAD SWAP1 POP DUP5 JUMP JUMPDEST PUSH0 PUSH1 0x5 PUSH0 DUP4 DUP2 MSTORE PUSH1 0x20 ADD SWAP1 DUP2 MSTORE PUSH1 0x20 ADD PUSH0 KECCAK256 SWAP1 POP PUSH0 PUSH20 0xFFFFFFFFFFFFFFFFFFFFFFFFFFFFFFFFFFFFFFFF AND DUP2 PUSH0 ADD PUSH0 SWAP1 SLOAD SWAP1 PUSH2 0x100 EXP SWAP1 DIV PUSH20 0xFFFFFFFFFFFFFFFFFFFFFFFFFFFFFFFFFFFFFFFF AND PUSH20 0xFFFFFFFFFFFFFFFFFFFFFFFFFFFFFFFFFFFFFFFF AND SUB PUSH2 0x7B6 JUMPI PUSH1 0x40 MLOAD PUSH32 0x8C379A000000000000000000000000000000000000000000000000000000000 DUP2 MSTORE PUSH1 0x4 ADD PUSH2 0x7AD SWAP1 PUSH2 0x1073 JUMP JUMPDEST PUSH1 0x40 MLOAD DUP1 SWAP2 SUB SWAP1 REVERT JUMPDEST DUP1 PUSH1 0x2 ADD SLOAD CALLVALUE EQ PUSH2 0x7FC JUMPI PUSH1 0x40 MLOAD PUSH32 0x8C379A000000000000000000000000000000000000000000000000000000000 DUP2 MSTORE PUSH1 0x4 ADD PUSH2 0x7F3 SWAP1 PUSH2 0x10DB JUMP JUMPDEST PUSH1 0x40 MLOAD DUP1 SWAP2 SUB SWAP1 REVERT JUMPDEST PUSH1 0x3 PUSH0 SWAP1 SLOAD SWAP1 PUSH2 0x100 EXP SWAP1 DIV PUSH20 0xFFFFFFFFFFFFFFFFFFFFFFFFFFFFFFFFFFFFFFFF AND PUSH20 0xFFFFFFFFFFFFFFFFFFFFFFFFFFFFFFFFFFFFFFFF AND PUSH4 0xF242432A DUP3 PUSH0 ADD PUSH0 SWAP1 SLOAD SWAP1 PUSH2 0x100 EXP SWAP1 DIV PUSH20 0xFFFFFFFFFFFFFFFFFFFFFFFFFFFFFFFFFFFFFFFF AND CALLER DUP5 PUSH1 0x1 ADD SLOAD DUP6 PUSH1 0x3 ADD SLOAD PUSH1 0x40 MLOAD DUP6 PUSH4 0xFFFFFFFF AND PUSH1 0xE0 SHL DUP2 MSTORE PUSH1 0x4 ADD PUSH2 0x886 SWAP5 SWAP4 SWAP3 SWAP2 SWAP1 PUSH2 0x112C JUMP JUMPDEST PUSH0 PUSH1 0x40 MLOAD DUP1 DUP4 SUB DUP2 PUSH0 DUP8 DUP1 EXTCODESIZE ISZERO DUP1 ISZERO PUSH2 0x89D JUMPI PUSH0 DUP1 REVERT JUMPDEST POP GAS CALL ISZERO DUP1 ISZERO PUSH2 0x8AF JUMPI RETURNDATASIZE PUSH0 DUP1 RETURNDATACOPY RETURNDATASIZE PUSH0 REVERT JUMPDEST POP POP POP POP DUP1 PUSH0 ADD PUSH0 SWAP1 SLOAD SWAP1 PUSH2 0x100 EXP SWAP1 DIV PUSH20 0xFFFFFFFFFFFFFFFFFFFFFFFFFFFFFFFFFFFFFFFF AND PUSH20 0xFFFFFFFFFFFFFFFFFFFFFFFFFFFFFFFFFFFFFFFF AND PUSH2 0x8FC DUP3 PUSH1 0x2 ADD SLOAD SWAP1 DUP2 ISZERO MUL SWAP1 PUSH1 0x40 MLOAD PUSH0 PUSH1 0x40 MLOAD DUP1 DUP4 SUB DUP2 DUP6 DUP9 DUP9 CALL SWAP4 POP POP POP POP ISZERO DUP1 ISZERO PUSH2 0x91C JUMPI RETURNDATASIZE PUSH0 DUP1 RETURNDATACOPY RETURNDATASIZE PUSH0 REVERT JUMPDEST POP DUP1 PUSH0 ADD PUSH0 SWAP1 SLOAD SWAP1 PUSH2 0x100 EXP SWAP1 DIV PUSH20 0xFFFFFFFFFFFFFFFFFFFFFFFFFFFFFFFFFFFFFFFF AND PUSH20 0xFFFFFFFFFFFFFFFFFFFFFFFFFFFFFFFFFFFFFFFF AND CALLER PUSH20 0xFFFFFFFFFFFFFFFFFFFFFFFFFFFFFFFFFFFFFFFF AND PUSH32 0x87D1EA9C6234C42BC3D2DB949FC3408B782CCFD4CC6753F14FE41B6BAECA11D7 DUP5 DUP5 PUSH1 0x1 ADD SLOAD DUP6 PUSH1 0x2 ADD SLOAD DUP7 PUSH1 0x3 ADD SLOAD PUSH1 0x40 MLOAD PUSH2 0x9AE SWAP5 SWAP4 SWAP3 SWAP2 SWAP1 PUSH2 0x1182 JUMP JUMPDEST PUSH1 0x40 MLOAD DUP1 SWAP2 SUB SWAP1 LOG3 PUSH1 0x5 PUSH0 DUP4 DUP2 MSTORE PUSH1 0x20 ADD SWAP1 DUP2 MSTORE PUSH1 0x20 ADD PUSH0 KECCAK256 PUSH0 DUP1 DUP3 ADD PUSH0 PUSH2 0x100 EXP DUP2 SLOAD SWAP1 PUSH20 0xFFFFFFFFFFFFFFFFFFFFFFFFFFFFFFFFFFFFFFFF MUL NOT AND SWAP1 SSTORE PUSH1 0x1 DUP3 ADD PUSH0 SWAP1 SSTORE PUSH1 0x2 DUP3 ADD PUSH0 SWAP1 SSTORE PUSH1 0x3 DUP3 ADD PUSH0 SWAP1 SSTORE POP POP POP POP JUMP JUMPDEST PUSH0 DUP1 REVERT JUMPDEST PUSH0 DUP2 SWAP1 POP SWAP2 SWAP1 POP JUMP JUMPDEST PUSH2 0xA1E DUP2 PUSH2 0xA0C JUMP JUMPDEST DUP2 EQ PUSH2 0xA28 JUMPI PUSH0 DUP1 REVERT JUMPDEST POP JUMP JUMPDEST PUSH0 DUP2 CALLDATALOAD SWAP1 POP PUSH2 0xA39 DUP2 PUSH2 0xA15 JUMP JUMPDEST SWAP3 SWAP2 POP POP JUMP JUMPDEST PUSH0 DUP1 PUSH0 PUSH1 0x60 DUP5 DUP7 SUB SLT ISZERO PUSH2 0xA56 JUMPI PUSH2 0xA55 PUSH2 0xA08 JUMP JUMPDEST JUMPDEST PUSH0 PUSH2 0xA63 DUP7 DUP3 DUP8 ADD PUSH2 0xA2B JUMP JUMPDEST SWAP4 POP POP PUSH1 0x20 PUSH2 0xA74 DUP7 DUP3 DUP8 ADD PUSH2 0xA2B JUMP JUMPDEST SWAP3 POP POP PUSH1 0x40 PUSH2 0xA85 DUP7 DUP3 DUP8 ADD PUSH2 0xA2B JUMP JUMPDEST SWAP2 POP POP SWAP3 POP SWAP3 POP SWAP3 JUMP JUMPDEST PUSH0 PUSH1 0x20 DUP3 DUP5 SUB SLT ISZERO PUSH2 0xAA4 JUMPI PUSH2 0xAA3 PUSH2 0xA08 JUMP JUMPDEST JUMPDEST PUSH0 PUSH2 0xAB1 DUP5 DUP3 DUP6 ADD PUSH2 0xA2B JUMP JUMPDEST SWAP2 POP POP SWAP3 SWAP2 POP POP JUMP JUMPDEST PUSH0 PUSH20 0xFFFFFFFFFFFFFFFFFFFFFFFFFFFFFFFFFFFFFFFF DUP3 AND SWAP1 POP SWAP2 SWAP1 POP JUMP JUMPDEST PUSH0 PUSH2 0xAE3 DUP3 PUSH2 0xABA JUMP JUMPDEST SWAP1 POP SWAP2 SWAP1 POP JUMP JUMPDEST PUSH2 0xAF3 DUP2 PUSH2 0xAD9 JUMP JUMPDEST DUP3 MSTORE POP POP JUMP JUMPDEST PUSH2 0xB02 DUP2 PUSH2 0xA0C JUMP JUMPDEST DUP3 MSTORE POP POP JUMP JUMPDEST PUSH0 PUSH1 0x80 DUP3 ADD SWAP1 POP PUSH2 0xB1B PUSH0 DUP4 ADD DUP8 PUSH2 0xAEA JUMP JUMPDEST PUSH2 0xB28 PUSH1 0x20 DUP4 ADD DUP7 PUSH2 0xAF9 JUMP JUMPDEST PUSH2 0xB35 PUSH1 0x40 DUP4 ADD DUP6 PUSH2 0xAF9 JUMP JUMPDEST PUSH2 0xB42 PUSH1 0x60 DUP4 ADD DUP5 PUSH2 0xAF9 JUMP JUMPDEST SWAP6 SWAP5 POP POP POP POP POP JUMP JUMPDEST PUSH0 PUSH1 0x20 DUP3 ADD SWAP1 POP PUSH2 0xB5E PUSH0 DUP4 ADD DUP5 PUSH2 0xAF9 JUMP JUMPDEST SWAP3 SWAP2 POP POP JUMP JUMPDEST PUSH0 DUP2 SWAP1 POP SWAP2 SWAP1 POP JUMP JUMPDEST PUSH0 PUSH2 0xB87 PUSH2 0xB82 PUSH2 0xB7D DUP5 PUSH2 0xABA JUMP JUMPDEST PUSH2 0xB64 JUMP JUMPDEST PUSH2 0xABA JUMP JUMPDEST SWAP1 POP SWAP2 SWAP1 POP JUMP JUMPDEST PUSH0 PUSH2 0xB98 DUP3 PUSH2 0xB6D JUMP JUMPDEST SWAP1 POP SWAP2 SWAP1 POP JUMP JUMPDEST PUSH0 PUSH2 0xBA9 DUP3 PUSH2 0xB8E JUMP JUMPDEST SWAP1 POP SWAP2 SWAP1 POP JUMP JUMPDEST PUSH2 0xBB9 DUP2 PUSH2 0xB9F JUMP JUMPDEST DUP3 MSTORE POP POP JUMP JUMPDEST PUSH0 PUSH1 0x20 DUP3 ADD SWAP1 POP PUSH2 0xBD2 PUSH0 DUP4 ADD DUP5 PUSH2 0xBB0 JUMP JUMPDEST SWAP3 SWAP2 POP POP JUMP JUMPDEST PUSH0 PUSH1 0x40 DUP3 ADD SWAP1 POP PUSH2 0xBEB PUSH0 DUP4 ADD DUP6 PUSH2 0xAEA JUMP JUMPDEST PUSH2 0xBF8 PUSH1 0x20 DUP4 ADD DUP5 PUSH2 0xAF9 JUMP JUMPDEST SWAP4 SWAP3 POP POP POP JUMP JUMPDEST PUSH0 DUP2 MLOAD SWAP1 POP PUSH2 0xC0D DUP2 PUSH2 0xA15 JUMP JUMPDEST SWAP3 SWAP2 POP POP JUMP JUMPDEST PUSH0 PUSH1 0x20 DUP3 DUP5 SUB SLT ISZERO PUSH2 0xC28 JUMPI PUSH2 0xC27 PUSH2 0xA08 JUMP JUMPDEST JUMPDEST PUSH0 PUSH2 0xC35 DUP5 DUP3 DUP6 ADD PUSH2 0xBFF JUMP JUMPDEST SWAP2 POP POP SWAP3 SWAP2 POP POP JUMP JUMPDEST PUSH0 DUP3 DUP3 MSTORE PUSH1 0x20 DUP3 ADD SWAP1 POP SWAP3 SWAP2 POP POP JUMP JUMPDEST PUSH32 0x4E6F7420656E6F75676820746F6B656E7320746F206C69737400000000000000 PUSH0 DUP3 ADD MSTORE POP JUMP JUMPDEST PUSH0 PUSH2 0xC82 PUSH1 0x19 DUP4 PUSH2 0xC3E JUMP JUMPDEST SWAP2 POP PUSH2 0xC8D DUP3 PUSH2 0xC4E JUMP JUMPDEST PUSH1 0x20 DUP3 ADD SWAP1 POP SWAP2 SWAP1 POP JUMP JUMPDEST PUSH0 PUSH1 0x20 DUP3 ADD SWAP1 POP DUP2 DUP2 SUB PUSH0 DUP4 ADD MSTORE PUSH2 0xCAF DUP2 PUSH2 0xC76 JUMP JUMPDEST SWAP1 POP SWAP2 SWAP1 POP JUMP JUMPDEST PUSH0 PUSH1 0x60 DUP3 ADD SWAP1 POP PUSH2 0xCC9 PUSH0 DUP4 ADD DUP7 PUSH2 0xAF9 JUMP JUMPDEST PUSH2 0xCD6 PUSH1 0x20 DUP4 ADD DUP6 PUSH2 0xAF9 JUMP JUMPDEST PUSH2 0xCE3 PUSH1 0x40 DUP4 ADD DUP5 PUSH2 0xAF9 JUMP JUMPDEST SWAP5 SWAP4 POP POP POP POP JUMP JUMPDEST PUSH32 0x4E487B7100000000000000000000000000000000000000000000000000000000 PUSH0 MSTORE PUSH1 0x11 PUSH1 0x4 MSTORE PUSH1 0x24 PUSH0 REVERT JUMPDEST PUSH0 PUSH2 0xD22 DUP3 PUSH2 0xA0C JUMP JUMPDEST SWAP2 POP PUSH32 0xFFFFFFFFFFFFFFFFFFFFFFFFFFFFFFFFFFFFFFFFFFFFFFFFFFFFFFFFFFFFFFFF DUP3 SUB PUSH2 0xD54 JUMPI PUSH2 0xD53 PUSH2 0xCEB JUMP JUMPDEST JUMPDEST PUSH1 0x1 DUP3 ADD SWAP1 POP SWAP2 SWAP1 POP JUMP JUMPDEST PUSH32 0x596F7520617265206E6F7420746865206F776E6572206F662074686973204E46 PUSH0 DUP3 ADD MSTORE PUSH32 0x5400000000000000000000000000000000000000000000000000000000000000 PUSH1 0x20 DUP3 ADD MSTORE POP JUMP JUMPDEST PUSH0 PUSH2 0xDB9 PUSH1 0x21 DUP4 PUSH2 0xC3E JUMP JUMPDEST SWAP2 POP PUSH2 0xDC4 DUP3 PUSH2 0xD5F JUMP JUMPDEST PUSH1 0x40 DUP3 ADD SWAP1 POP SWAP2 SWAP1 POP JUMP JUMPDEST PUSH0 PUSH1 0x20 DUP3 ADD SWAP1 POP DUP2 DUP2 SUB PUSH0 DUP4 ADD MSTORE PUSH2 0xDE6 DUP2 PUSH2 0xDAD JUMP JUMPDEST SWAP1 POP SWAP2 SWAP1 POP JUMP JUMPDEST PUSH32 0xE69CAAE98194E588B0E8BD89E8B3A3E8A8ADE5AE9AE69982E996930000000000 PUSH0 DUP3 ADD MSTORE POP JUMP JUMPDEST PUSH0 PUSH2 0xE21 PUSH1 0x1B DUP4 PUSH2 0xC3E JUMP JUMPDEST SWAP2 POP PUSH2 0xE2C DUP3 PUSH2 0xDED JUMP JUMPDEST PUSH1 0x20 DUP3 ADD SWAP1 POP SWAP2 SWAP1 POP JUMP JUMPDEST PUSH0 PUSH1 0x20 DUP3 ADD SWAP1 POP DUP2 DUP2 SUB PUSH0 DUP4 ADD MSTORE PUSH2 0xE4E DUP2 PUSH2 0xE15 JUMP JUMPDEST SWAP1 POP SWAP2 SWAP1 POP JUMP JUMPDEST PUSH32 0xE4BAA4E69893E69C9FE99990E5B7B2E7B590E69D9F0000000000000000000000 PUSH0 DUP3 ADD MSTORE POP JUMP JUMPDEST PUSH0 PUSH2 0xE89 PUSH1 0x15 DUP4 PUSH2 0xC3E JUMP JUMPDEST SWAP2 POP PUSH2 0xE94 DUP3 PUSH2 0xE55 JUMP JUMPDEST PUSH1 0x20 DUP3 ADD SWAP1 POP SWAP2 SWAP1 POP JUMP JUMPDEST PUSH0 PUSH1 0x20 DUP3 ADD SWAP1 POP DUP2 DUP2 SUB PUSH0 DUP4 ADD MSTORE PUSH2 0xEB6 DUP2 PUSH2 0xE7D JUMP JUMPDEST SWAP1 POP SWAP2 SWAP1 POP JUMP JUMPDEST PUSH0 PUSH2 0xEC7 DUP3 PUSH2 0xA0C JUMP JUMPDEST SWAP2 POP PUSH2 0xED2 DUP4 PUSH2 0xA0C JUMP JUMPDEST SWAP3 POP DUP3 DUP3 MUL PUSH2 0xEE0 DUP2 PUSH2 0xA0C JUMP JUMPDEST SWAP2 POP DUP3 DUP3 DIV DUP5 EQ DUP4 ISZERO OR PUSH2 0xEF7 JUMPI PUSH2 0xEF6 PUSH2 0xCEB JUMP JUMPDEST JUMPDEST POP SWAP3 SWAP2 POP POP JUMP JUMPDEST PUSH32 0x4E487B7100000000000000000000000000000000000000000000000000000000 PUSH0 MSTORE PUSH1 0x12 PUSH1 0x4 MSTORE PUSH1 0x24 PUSH0 REVERT JUMPDEST PUSH0 PUSH2 0xF35 DUP3 PUSH2 0xA0C JUMP JUMPDEST SWAP2 POP PUSH2 0xF40 DUP4 PUSH2 0xA0C JUMP JUMPDEST SWAP3 POP DUP3 PUSH2 0xF50 JUMPI PUSH2 0xF4F PUSH2 0xEFE JUMP JUMPDEST JUMPDEST DUP3 DUP3 DIV SWAP1 POP SWAP3 SWAP2 POP POP JUMP JUMPDEST PUSH32 0xE583B9E6A0BCE784A1E695880000000000000000000000000000000000000000 PUSH0 DUP3 ADD MSTORE POP JUMP JUMPDEST PUSH0 PUSH2 0xF8F PUSH1 0xC DUP4 PUSH2 0xC3E JUMP JUMPDEST SWAP2 POP PUSH2 0xF9A DUP3 PUSH2 0xF5B JUMP JUMPDEST PUSH1 0x20 DUP3 ADD SWAP1 POP SWAP2 SWAP1 POP JUMP JUMPDEST PUSH0 PUSH1 0x20 DUP3 ADD SWAP1 POP DUP2 DUP2 SUB PUSH0 DUP4 ADD MSTORE PUSH2 0xFBC DUP2 PUSH2 0xF83 JUMP JUMPDEST SWAP1 POP SWAP2 SWAP1 POP JUMP JUMPDEST PUSH0 PUSH2 0xFCD DUP3 PUSH2 0xA0C JUMP JUMPDEST SWAP2 POP PUSH2 0xFD8 DUP4 PUSH2 0xA0C JUMP JUMPDEST SWAP3 POP DUP3 DUP3 ADD SWAP1 POP DUP1 DUP3 GT ISZERO PUSH2 0xFF0 JUMPI PUSH2 0xFEF PUSH2 0xCEB JUMP JUMPDEST JUMPDEST SWAP3 SWAP2 POP POP JUMP JUMPDEST PUSH0 PUSH2 0x1000 DUP3 PUSH2 0xA0C JUMP JUMPDEST SWAP2 POP PUSH2 0x100B DUP4 PUSH2 0xA0C JUMP JUMPDEST SWAP3 POP DUP3 DUP3 SUB SWAP1 POP DUP2 DUP2 GT ISZERO PUSH2 0x1023 JUMPI PUSH2 0x1022 PUSH2 0xCEB JUMP JUMPDEST JUMPDEST SWAP3 SWAP2 POP POP JUMP JUMPDEST PUSH32 0x496E76616C6964206C697374696E674964000000000000000000000000000000 PUSH0 DUP3 ADD MSTORE POP JUMP JUMPDEST PUSH0 PUSH2 0x105D PUSH1 0x11 DUP4 PUSH2 0xC3E JUMP JUMPDEST SWAP2 POP PUSH2 0x1068 DUP3 PUSH2 0x1029 JUMP JUMPDEST PUSH1 0x20 DUP3 ADD SWAP1 POP SWAP2 SWAP1 POP JUMP JUMPDEST PUSH0 PUSH1 0x20 DUP3 ADD SWAP1 POP DUP2 DUP2 SUB PUSH0 DUP4 ADD MSTORE PUSH2 0x108A DUP2 PUSH2 0x1051 JUMP JUMPDEST SWAP1 POP SWAP2 SWAP1 POP JUMP JUMPDEST PUSH32 0x496E636F72726563742076616C75652073656E74000000000000000000000000 PUSH0 DUP3 ADD MSTORE POP JUMP JUMPDEST PUSH0 PUSH2 0x10C5 PUSH1 0x14 DUP4 PUSH2 0xC3E JUMP JUMPDEST SWAP2 POP PUSH2 0x10D0 DUP3 PUSH2 0x1091 JUMP JUMPDEST PUSH1 0x20 DUP3 ADD SWAP1 POP SWAP2 SWAP1 POP JUMP JUMPDEST PUSH0 PUSH1 0x20 DUP3 ADD SWAP1 POP DUP2 DUP2 SUB PUSH0 DUP4 ADD MSTORE PUSH2 0x10F2 DUP2 PUSH2 0x10B9 JUMP JUMPDEST SWAP1 POP SWAP2 SWAP1 POP JUMP JUMPDEST PUSH0 DUP3 DUP3 MSTORE PUSH1 0x20 DUP3 ADD SWAP1 POP SWAP3 SWAP2 POP POP JUMP JUMPDEST POP JUMP JUMPDEST PUSH0 PUSH2 0x1117 PUSH0 DUP4 PUSH2 0x10F9 JUMP JUMPDEST SWAP2 POP PUSH2 0x1122 DUP3 PUSH2 0x1109 JUMP JUMPDEST PUSH0 DUP3 ADD SWAP1 POP SWAP2 SWAP1 POP JUMP JUMPDEST PUSH0 PUSH1 0xA0 DUP3 ADD SWAP1 POP PUSH2 0x113F PUSH0 DUP4 ADD DUP8 PUSH2 0xAEA JUMP JUMPDEST PUSH2 0x114C PUSH1 0x20 DUP4 ADD DUP7 PUSH2 0xAEA JUMP JUMPDEST PUSH2 0x1159 PUSH1 0x40 DUP4 ADD DUP6 PUSH2 0xAF9 JUMP JUMPDEST PUSH2 0x1166 PUSH1 0x60 DUP4 ADD DUP5 PUSH2 0xAF9 JUMP JUMPDEST DUP2 DUP2 SUB PUSH1 0x80 DUP4 ADD MSTORE PUSH2 0x1177 DUP2 PUSH2 0x110C JUMP JUMPDEST SWAP1 POP SWAP6 SWAP5 POP POP POP POP POP JUMP JUMPDEST PUSH0 PUSH1 0x80 DUP3 ADD SWAP1 POP PUSH2 0x1195 PUSH0 DUP4 ADD DUP8 PUSH2 0xAF9 JUMP JUMPDEST PUSH2 0x11A2 PUSH1 0x20 DUP4 ADD DUP7 PUSH2 0xAF9 JUMP JUMPDEST PUSH2 0x11AF PUSH1 0x40 DUP4 ADD DUP6 PUSH2 0xAF9 JUMP JUMPDEST PUSH2 0x11BC PUSH1 0x60 DUP4 ADD DUP5 PUSH2 0xAF9 JUMP JUMPDEST SWAP6 SWAP5 POP POP POP POP POP JUMP INVALID LOG2 PUSH5 0x6970667358 0x22 SLT KECCAK256 0x1E 0x21 0xE SELFBALANCE PUSH29 0x62C6CB302F0FB56340C6456F3834B6A09B4DA6E4B72D3AD91742B26473 PUSH16 0x6C634300081600330000000000000000 "
		},
		"gasEstimates": {
			"creation": {
				"codeDepositCost": "920600",
				"executionCost": "infinite",
				"totalCost": "infinite"
			},
			"external": {
				"basePrice()": "2447",
				"firstTradeWindow()": "2469",
				"listings(uint256)": "infinite",
				"nextListingId()": "2425",
				"nfts(uint256)": "infinite",
				"purchase(uint256)": "infinite",
				"sellToken(uint256,uint256,uint256)": "infinite",
				"ticketSystem()": "infinite"
			}
		},
		"methodIdentifiers": {
			"basePrice()": "c7876ea4",
			"firstTradeWindow()": "367ccbd8",
			"listings(uint256)": "de74e57b",
			"nextListingId()": "aaccf1ec",
			"nfts(uint256)": "265aa621",
			"purchase(uint256)": "efef39a1",
			"sellToken(uint256,uint256,uint256)": "1f181d57",
			"ticketSystem()": "3cacd265"
		}
	},
	"abi": [
		{
			"inputs": [
				{
					"internalType": "address",
					"name": "_ticketSystem",
					"type": "address"
				}
			],
			"stateMutability": "nonpayable",
			"type": "constructor"
		},
		{
			"anonymous": false,
			"inputs": [
				{
					"indexed": false,
					"internalType": "uint256",
					"name": "listingId",
					"type": "uint256"
				},
				{
					"indexed": true,
					"internalType": "address",
					"name": "seller",
					"type": "address"
				},
				{
					"indexed": true,
					"internalType": "uint256",
					"name": "tokenId",
					"type": "uint256"
				},
				{
					"indexed": false,
					"internalType": "uint256",
					"name": "price",
					"type": "uint256"
				},
				{
					"indexed": false,
					"internalType": "uint256",
					"name": "amount",
					"type": "uint256"
				}
			],
			"name": "Listed",
			"type": "event"
		},
		{
			"anonymous": false,
			"inputs": [
				{
					"indexed": false,
					"internalType": "uint256",
					"name": "listingId",
					"type": "uint256"
				},
				{
					"indexed": true,
					"internalType": "address",
					"name": "buyer",
					"type": "address"
				},
				{
					"indexed": true,
					"internalType": "address",
					"name": "seller",
					"type": "address"
				},
				{
					"indexed": false,
					"internalType": "uint256",
					"name": "tokenId",
					"type": "uint256"
				},
				{
					"indexed": false,
					"internalType": "uint256",
					"name": "price",
					"type": "uint256"
				},
				{
					"indexed": false,
					"internalType": "uint256",
					"name": "amount",
					"type": "uint256"
				}
			],
			"name": "Purchased",
			"type": "event"
		},
		{
			"inputs": [],
			"name": "basePrice",
			"outputs": [
				{
					"internalType": "uint256",
					"name": "",
					"type": "uint256"
				}
			],
			"stateMutability": "view",
			"type": "function"
		},
		{
			"inputs": [],
			"name": "firstTradeWindow",
			"outputs": [
				{
					"internalType": "uint256",
					"name": "",
					"type": "uint256"
				}
			],
			"stateMutability": "view",
			"type": "function"
		},
		{
			"inputs": [
				{
					"internalType": "uint256",
					"name": "",
					"type": "uint256"
				}
			],
			"name": "listings",
			"outputs": [
				{
					"internalType": "address",
					"name": "seller",
					"type": "address"
				},
				{
					"internalType": "uint256",
					"name": "tokenId",
					"type": "uint256"
				},
				{
					"internalType": "uint256",
					"name": "price",
					"type": "uint256"
				},
				{
					"internalType": "uint256",
					"name": "amount",
					"type": "uint256"
				}
			],
			"stateMutability": "view",
			"type": "function"
		},
		{
			"inputs": [],
			"name": "nextListingId",
			"outputs": [
				{
					"internalType": "uint256",
					"name": "",
					"type": "uint256"
				}
			],
			"stateMutability": "view",
			"type": "function"
		},
		{
			"inputs": [
				{
					"internalType": "uint256",
					"name": "",
					"type": "uint256"
				}
			],
			"name": "nfts",
			"outputs": [
				{
					"internalType": "address",
					"name": "owner",
					"type": "address"
				},
				{
					"internalType": "uint256",
					"name": "price",
					"type": "uint256"
				},
				{
					"internalType": "uint256",
					"name": "startTime",
					"type": "uint256"
				},
				{
					"internalType": "uint256",
					"name": "endTime",
					"type": "uint256"
				}
			],
			"stateMutability": "view",
			"type": "function"
		},
		{
			"inputs": [
				{
					"internalType": "uint256",
					"name": "listingId",
					"type": "uint256"
				}
			],
			"name": "purchase",
			"outputs": [],
			"stateMutability": "payable",
			"type": "function"
		},
		{
			"inputs": [
				{
					"internalType": "uint256",
					"name": "tokenId",
					"type": "uint256"
				},
				{
					"internalType": "uint256",
					"name": "newprice",
					"type": "uint256"
				},
				{
					"internalType": "uint256",
					"name": "amount",
					"type": "uint256"
				}
			],
			"name": "sellToken",
			"outputs": [],
			"stateMutability": "nonpayable",
			"type": "function"
		},
		{
			"inputs": [],
			"name": "ticketSystem",
			"outputs": [
				{
					"internalType": "contract IERC1155",
					"name": "",
					"type": "address"
				}
			],
			"stateMutability": "view",
			"type": "function"
		}
	]
}